:020000040000FA
:06000000F8EF02F012000F
:020006001200E6
:060008000EEF00F01200F3
:02000E000100EF
:0C00100021060000600000009E000000BF
:04001C00DACFE4FF54
:10002000E2CFDAFFE9CFE4FFEACFE4FFF3CFE4FF6A
:10003000F4CFE4FFE652F2A434D0F29403016A0E46
:100040000D6F670E0E6F0EC3D7FF0DC3D6FF760E72
:10005000E96E000EEA6EEE500001725D006EEE5029
:1000600000017359016EEE5000017459026EEE509A
:1000700000017559036E0A0E005C000E0158000E57
:100080000258000E035808E204008B828B828B8298
:100090008B828B828B828B8203010A6B00016095BD
:1000A0008B909EAC3ED09E9C00016A2B000E6B2371
:1000B0006C236D230001FD51E96EEA6AD890E936A0
:1000C000EA367A0EE926000EEA22C3CFEEFFC4CF4D
:1000D000EDFF03010B5115E00001FD51E96EEA6AE5
:1000E000D890E936EA367A0EE926000EEA22EECFFB
:1000F00000F0EFCF01F001C000F0016A00506F6E18
:100100000DD00001FD51E96EEA6AD890E936EA3671
:100110007A0EE926000EEA22EF506F6E000160832E
:100120008B72A4AE9CD0A49E0001722B000E732390
:10013000742375236FCFFEF0F00E0001FE1503014E
:100140000C6F800E03010C5D04E0C00E03010C5D1A
:1001500036E1400E0001FE15000805E20301010E24
:100160000B6F8B9203D003010B6B8B820F0E000180
:10017000FE150001FD6F0001FD51040803E2070EAA
:100180000001FD270001FD51130802E20001FD6B93
:10019000C2B20FD0C30EC214006E0001FD51040D97
:1001A000F3503C0B0010C26E00016093C2828B7250
:1001B00006D0C2926E0E6F6E000160938B72400E7D
:1001C0000001FE5D03E16E0E6F6E8B72900E0001FA
:1001D000FE5D45E1C2B240D003010B510EE00001CB
:1001E000FD51E96EEA6AD890E936EA367A0EE926D8
:1001F000000EEA22EF506F6E14D00001FD51E96E3F
:10020000EA6AD890E936EA367A0EE926000EEA2242
:10021000EECF00F0EFCF01F001C000F0016A005016
:100220006F6E8B7272C076F073C077F074C078F026
:1002300075C079F00400000160850301010E0A6FAA
:100240008B8003016A0E0D6F670E0E6F0EC3D7FF12
:100250000DC3D6FFF29403D08B726E0E6F6EE55213
:10026000E5CFF4FFE5CFF3FFE5CFEAFFE5CFE9FF08
:10027000E5CFDAFF1100D9CFE6FFE1CFD9FF0301C7
:100280000F6B106B116B126BD950FB0FE96EFF0EE9
:10029000DA20EA6E03010F51EE5C03011051EE58B3
:1002A00003011151EE5803011251EE5809E3000009
:1002B000040003010F2B000E102311231223E4D797
:1002C000E552E7CFD9FF1200700ED36EC00E9B6EC1
:1002D000FC0E946E8B6A929C938293849396938087
:1002E0009280928292849286928A93889380938A53
:1002F000948494869488948A948C948E9388938A18
:10030000938C938E0F012F0E386F300E396FFC0EC9
:100310003A6FE00E426FF80EE66E830EE66EEB0E5D
:10032000E66E5AEC02F0E552E552E5529D8C9F8C48
:10033000E66A030EE66E040EE66E8AEC02F0E55203
:10034000E552E552400E6F6E970EE66ECCEC02F071
:10035000E5526A0EE66E670EE66EB0EC02F0E5520C
:10036000E552A49EA38ED08EF28E6C9C6C9E1200E1
:10037000D9CFE6FFE1CFD9FF090EE126040EDB6AF3
:10038000050EDB6A060EDB6A070EDB6A9DDF6C502A
:10039000800B03E16C50400B13E06C9C6C9E6E0E66
:1003A000E96E000EEA6EEE5000016A5D6E6FEE506F
:1003B0006B596F6FEE506C59706FEE506D59716FD5
:1003C000DE6ADD6ADECF06F0DDCF07F0D890075099
:1003D00004E6010E065C000E0758D9E2020EDB6A45
:1003E000030EDB6A020EDBCF06F0030EDBCF07F055
:1003F000D890075004E6010E065C000E075806E28E
:10040000020EDB2A030EEEE3DB2AECD7DF2A010E15
:06041000D9E3DB2AD7D777
:0A0416000E0EF66E000EF76E000EDB
:10042000F86E03010900F550056F0900F550066FDD
:1004300003E1056701D03DD00900F550006F0900C8
:10044000F550016F0900F550026F09000900F550E1
:10045000E96E0900F550EA6E090009000900F5503F
:10046000036F0900F550046F09000900F6CF07F388
:10047000F7CF08F3F8CF09F300C3F6FF01C3F7FF86
:1004800002C3F8FF0301035302E1045307E009002C
:10049000F550EE6E0307F8E20407F9D707C3F6FF3D
:1004A00008C3F7FF09C3F8FF03010507000E065B49
:0404B000BFD71200A0
:0C04B400D9CFE6FFDACFE6FFE1CFD9FF99
:1004C000E2CFDAFFC26AC16AC06AFC0EDB507C0B65
:1004D000C26EFB0EDB50C16EFD0EDB50040DF350FF
:1004E000380B076EFD0EDB380F0B070B066EFD0E8B
:1004F000DB50800B06100710C06EFC0EDBAE03D085
:100500009E9C9D8CF28CC280E552E5CFDAFFE7CF4E
:04051000D9FF1200FD
:0C051400D9CFE6FFDACFE6FFE1CFD9FF38
:10052000E2CFDAFF3F0E6D166C6AFD0EDB506C12E7
:10053000FB0EDB506D12FC0EDB50030A09E0010AD2
:1005400004E0020A06E16D8C04D06D8C6C8801D049
:100550006C886C8AE552E5CFDAFFE7CFD9FF12004D
:10056000D9CFE6FFDACFE6FFE1CFD9FFE2CFDAFF5E
:10057000E652E652FC0EDBCFDEFFDBCFDDFF010EE5
:10058000DB50D76EDF50D66EE552E552E552E5CF2F
:08059000DAFFE7CFD9FF1200EA
:08059800D9CFE6FFDACFE6FF40
:1005A000E1CFD9FFE2CFDAFFFD0EDB507F0BD56E36
:1005B000D76AD66AF294FD0EDBAE02D0F28A01D081
:1005C000F29AD58EE552E5CFDAFFE7CFD9FF1200D8
:1005D000000EF36E00EE00F0060E01D81200EA6085
:1005E00002D0EE6AFCD7F350E9601200EE6AFCD745
:1005F00015EE00F025EE00F0F86A059C0BEC02F019
:0C06000003EC00F0B8EC01F0FBD7120096
:04060C0031323A331A
:10061000323A3136004A616E20313920323031337E
:0106200000D9
:0F062100001506000C060000000000000000009D
:1006300000000000000000000000000000000000BA
:1006400000000000000000000000000000000000AA
:10065000000000000000000000000000000000009A
:10066000000000000000000000000000000000008A
:10067000000000000000000000000000000000007A
:10068000000000000000000000000000000000006A
:10069000000000000000000000000000000000005A
:1006A000000000000000000000000000000000004A
:0F06B00000000000000000000000000000C80073
:020000040030CA
:0100010038C6
:0100020019E4
:010003002BD1
:01000500BD3D
:010006008178
:00000001FF
