:020000040000fa
:080000000002040000000000f2
:020000040000fa
:10000800d2020000d2020000d2020000d202000098
:10001800d2020000d2020000d2020000d202000088
:10002800d2020000d2020000d2020000d202000078
:10003800d2020000d2020000d2020000d202000068
:10004800d2020000d2020000d20200009821000073
:10005800c0210000c6200000d2020000d202000029
:10006800d2020000d2020000a8240000ca22000028
:10007800d2020000d2020000d2020000d202000028
:10008800d2020000d2020000d2020000d202000018
:100098002c250000d2020000d2020000d20200008b
:1000a800d2020000d2020000d2020000d2020000f8
:1000b800d2020000d2020000d2020000d2020000e8
:1000c800d2020000d2020000d2020000d2020000d8
:1000d800d2020000d2020000d2020000d2020000c8
:1000e800d2020000d2020000d2020000d2020000b8
:1000f800d2020000d2020000d2020000d2020000a8
:10010800d2020000d2020000d2020000d202000097
:10011800d2020000d2020000d2020000d202000087
:10012800d2020000f8210000d2020000d202000032
:10013800d2020000d2020000d2020000d202000067
:10014800d2020000d2020000d2020000d202000057
:10015800d2020000d2020000d2020000d202000047
:10016800d2020000d2020000d2020000d202000037
:10017800d2020000d2020000d2020000d202000027
:10018800d2020000d2020000d2020000d202000017
:10019800d2020000d2020000d2020000d202000007
:1001a800d2020000d2020000d2020000d2020000f7
:1001b800d2020000d2020000d2020000d2020000e7
:1001c800d2020000d2020000d2020000d2020000d7
:1001d800d2020000d2020000d2020000d2020000c7
:1001e800d2020000d2020000d2020000d2020000b7
:0801f800d2020000d202000057
:020000040000fa
:10020800d2020000d2020000d2020000d202000096
:10021800d2020000d2020000d2020000d202000086
:10022800d2020000d2020000d2020000d202000076
:10023800d2020000d2020000d2020000d202000066
:10024800d2020000d2020000d20200009821000071
:10025800c0210000c6200000d2020000d202000027
:10026800d2020000d2020000a8240000ca22000026
:10027800d2020000d2020000d2020000d202000026
:10028800d2020000d2020000d2020000d202000016
:100298002c250000d2020000d2020000d202000089
:1002a800d2020000d2020000d2020000d2020000f6
:1002b800d2020000d2020000d2020000d2020000e6
:1002c800d2020000d2020000d2020000d2020000d6
:1002d800d2020000d2020000d2020000d2020000c6
:1002e800d2020000d2020000d2020000d2020000b6
:1002f800d2020000d2020000d2020000d2020000a6
:10030800d2020000d2020000d2020000d202000095
:10031800d2020000d2020000d2020000d202000085
:10032800d2020000f8210000d2020000d202000030
:10033800d2020000d2020000d2020000d202000065
:10034800d2020000d2020000d2020000d202000055
:10035800d2020000d2020000d2020000d202000045
:10036800d2020000d2020000d2020000d202000035
:10037800d2020000d2020000d2020000d202000025
:10038800d2020000d2020000d2020000d202000015
:10039800d2020000d2020000d2020000d202000005
:1003a800d2020000d2020000d2020000d2020000f5
:1003b800d2020000d2020000d2020000d2020000e5
:1003c800d2020000d2020000d2020000d2020000d5
:1003d800d2020000d2020000d2020000d2020000c5
:1003e800d2020000d2020000d2020000d2020000b5
:0803f800d2020000d202000055
:020000040000fa
:100400000fc120000e7f22000e01880000000000b6
:10041000000020000000e000020032000001200087
:10042000200288000c000700003622000100200096
:100430000f000700000020000000e0000200320072
:1004400000000200000000001e1e0200000000006c
:100450000040da000000fe00001b20000000e00069
:1004600002003200002020009001880000000600f9
:10047000a1028800800078000000eb001a0037001d
:10048000e280400054a0b4009101ba00e280400034
:1004900054a0b4009102ba00e280400054a0b4001d
:1004a0000002eb00472bde00f507b200a601880032
:1004b000602ce10008003a000049eb000201e8006e
:1004c000020039003420ec0002f0a0008301e900b2
:1004d000f9ff3e00040037006128e100010032000e
:1004e0000082eb00040007001101ba000200e000e6
:1004f000e3ff3a000000060004d0a300e20f490029
:100500001c003900810278003549ba000201e80078
:10051000020039003420ec0002f0a0008301e90061
:100520000f0032002549ba000201e800020039003c
:100530003420ec0002f0a0008301e9000800320042
:100540000400e0000600320015c9ba000201e8000c
:10055000020039003420ec0002f0a0008301e90021
:100560008180e80054a0b4000300e000e2ff3a00fc
:10057000000006009102ba00055978008301e900e5
:10058000f7ff3200c82ade00055978008301e90030
:10059000f3ff32000400e000f1ff320011d9ba008d
:1005a000eeff37000040da000000fe001004b1004a
:1005b000070035009001b100040034007000b10064
:1005c000030035009001b10001003c00100005005f
:1005d000000005006900e100040035006d00e10045
:1005e000030034000002b1000100320000000500e9
:1005f000100005001004b100030035009001b100a7
:1006000001003c001000050000000500800078009b
:100610001104b100030035009101b10001003c005c
:100620000050a000000006000a00fa00e00f500091
:1006300027003a0074608000e10f5200060032008b
:100640008723200066232000252320000423200088
:10065000e08f530004003a00872220006622200029
:100660002522200004222000000028001400600041
:1006700003003a00800b780007002800148a7300fa
:10068000020278000c0037008703e900950178002a
:100690006180610002003a00e08f5300faff3a00e7
:1006a00015007800e103600007003200960378002f
:1006b0000402e90087587800e00f5200020032007f
:1006c000070a2000f1ff370004005100080037003e
:1006d00024002000c0bf9f00b4bf9f006a80570065
:1006e000d1bf9f00e2bf9f00180707006fb89700b7
:1006f0000080fa00000006000a00fa00e20f500035
:1007000022003e0074608000e10f520006003200bb
:1007100087232000462320002423200005232000d7
:10072000e08f530004003a00872220004622200078
:10073000242220000522200000002800150060006f
:1007400003003a00800b780007002800958a7300a8
:10075000054020009482620001003a0014a0a0002d
:100760008202780006003700940378000710b20078
:10077000fdff3200b103fb00070b78008502e900a2
:10078000e08f5200f8ff3a000800370034002000e4
:10079000c0bf9f00e2bf9f00b4bf9f00d1bf9f00ba
:1007a0006a805700eb0607006fb9970002007800d7
:1007b0000080fa00000006006022b8000602200057
:1007c0000000d0008180d2000482d2008582d20055
:1007d0000000a0000202520083825a000300310090
:1007e0000202420083824a000000a1000603e900e1
:1007f000f3ff3a0000000600889fbe000004be0020
:100800000c003700090078002200070089007800fa
:10081000000178000800780030060700e00f500063
:100820000a0032000800e8009900fb000a000700f7
:1008300000047800e00f5400040032000042eb0096
:10084000984f1200efff3a000004eb000800780018
:100850004f04be00000006000002eb00881f780075
:100860006103b800060478006121b8000600410069
:10087000e842790081cf5200040032000402e8000f
:10088000e0cf5200f8ff3a000000eb004f04780080
:1008900000000600000278000000eb000401e80000
:1008a00084027800030020006103b8000000e80023
:1008b0008600410065437b00e04f5300faff3a0099
:1008c0000482ea0004804000cf80de0000000600c1
:1008d0000c00fa00a0bf9f00c0bf9f00edff070003
:1008e000140c2000b0bf9f00f0bf9f00d4bf9f003a
:1008f00074815700efb097006c80570034000700f8
:100900000080fa0000000600881f78006060800008
:100910002d05070000047800080078002dff07006f
:10092000e00f5000f9ff3a00e10f440003003200ed
:100930006160800008007800f90507004f04780026
:1009400000000600889fbe00000478008a1f78001f
:10095000814478000205780004fd2f00080242005f
:10096000e90f520002003e00040478000f00370037
:10097000080078001fff0700e00f5000050032005c
:10098000e00f550003003200080078001fff070049
:10099000000478000800780004ff070000c2eb00a4
:1009a000e00f5000060032007805b1008984fb009a
:1009b00000c2eb00890f540001003d00084278009e
:1009c0004f057800044078004f04be000000060088
:1009d0000002eb00f087470060608800889fbe003f
:1009e000044478008a9fbe008c9fbe008e1f780052
:1009f0000207780081bf9f00d4b79f0037013700fe
:100a00008fba97008985fb008502e8000b0078000b
:100a100085bf9f00effe0700e00f5000020032008c
:100a2000b9ff07002d01370054c2b30084cf540032
:100a30001e013a008044780025c0b30000457800cc
:100a4000054678000fb8970080057800040037004d
:100a50004cc0b300010037002cc0b3000b0078007d
:100a60003b42780095c6b300854f52009700320094
:100a70001d003e00e6c25200854f52006a0032005f
:100a800012003e00f7c25200854f52002f00320084
:100a900006003e00e04f5200ab003200a5c2b3009a
:100aa000854f520075003a002600370085c5b30017
:100ab000854f520071003a00150020009cef9f0006
:100ac0008bbf9f00d5b79f001c00370045c6b30001
:100ad000854f52007d003200e4c24200854f520033
:100ae00066003a00dcff370035c7b300854f52007f
:100af0001a00320007003e00e7c25200854f520044
:100b000012003200e3c24200854f52005b003a00ff
:100b10007200370055c7b300854f52006b0032009a
:100b2000e3c24200854f520054003a000002eb003d
:100b30008bbf9f00d4b79f009cef9f000bc1b300f9
:100b4000690037000a45e800c4ff3700e24f56004d
:100b5000bfff32008cc0b300c0ff37008bbf9f00c7
:100b600069ff0700e04f550002003a004e0278008e
:100b7000e4b79f0060608000930407008005780060
:100b8000e18f450014003a000b007800d0003700d8
:100b90008fba97001502fb00848f550005003a00bc
:100ba0000c0278008502e800e4b79f0085bf9f0033
:100bb00017003700e04f550001003a000b5e780047
:100bc0008944e9000d003200606080007e04070067
:100bd00080057800010037006fb697000b02e8002f
:100be000e10f5200080036000b00780079fe070084
:100bf000e00f5000e6ff3200030037000c027800df
:100c0000e4b79f00020037008c027800e5b79f0030
:100c1000e04f5500b1003a006fb297000844e80079
:100c20000a4a7800ad0037008bbf9f00e04f5500a7
:100c300004003a00ce0278000844e80085057800f8
:100c400001003700efb59700606080005e04070088
:100c5000e10f40009e003200e04f550001003a00d5
:100c6000805d78008944e9004240a900f6ff3c001d
:100c70000b027800e4b79f00980037008484fb00e3
:100c800004fd2f0009024200e90f520009003e0056
:100c90002e0407000b027800804478008405780059
:100ca000b402fb000503b100e98f5200fbff3600e0
:100cb0006aff37008bbf9f0060608000420407001e
:100cc000808f54007d003a00840037008bbf9f0066
:100cd0009cef9f00abc0b300030037008bbf9f00a9
:100ce0009cef9f008bc0b30007ff0700606080008f
:100cf000350407008042eb00f0b79f0085ef9f00ae
:100d0000d402200080027800848f520005003a004f
:100d1000606080002c040700f0b79f0014c0b3008f
:100d200084ef9f005fb197008b4078007fb0970001
:100d300004ff0700e14f40000b003a0061608000b3
:100d40007fb09700f6040700e04f540067003a00b8
:100d50006460800034009000700060006400320025
:100d60000080eb006200370004032000ffb2970010
:100d7000848f520015003a00606080001204070062
:100d800084072000840f500004003a005fb29700ef
:100d9000e00f5200070032000a00370084052000ef
:100da000840f500007003a00dfb29700e08f520036
:100db000040032006060800003040700f0b79f0069
:100dc0000200370061608000d50407000b82fb0041
:100dd00005002000a4b79f00b5b79f006066b8006b
:100de0002fb19700bfb197000c00be008944e90005
:100df0005a0507005fb197000006be008b407800df
:100e00007fb09700cffe07000080fb0001002000ac
:100e10000006460081864e00e0cf540008003200f4
:100e200060608000e80307005fb19700f0b79f00a3
:100e30008b407800c3fe0700e14f4000e8ff3a0016
:100e40005fb197008b4078007fb09700bdfe070030
:100e5000e14f400003003a00616080007fb09700de
:100e6000af0407008fea9700e0cf52000200320083
:100e700060061600e0861e00e04f550017003a009d
:100e80000844e8000e87e9001fea9700e44f52008b
:100e900003003a001e0278000c8abe000f003700e3
:100ea0001e0278000c0a78000c0037006060800099
:100eb000c5030700808f550008003200e10f400095
:100ec00003003200616080009504070007003700ce
:100ed000e04f540005003a00050037000fba9700b4
:100ee00094447800e0cf5400c5fe3a000880fb002f
:100ef0004f0778004f06be004f05be004f04be00ee
:100f00000f01b100000006000c00fa00889fbe002f
:100f1000f4ff270000047800d4bf9f008004eb009a
:100f200088bf9f0099bf9f00a8bf9f00240c20008e
:100f300078815700b4bf9f00cfb0970070805700f2
:100f4000070007000fba9700094a78000fba970008
:100f5000080052004f04be000080fa0000000600a6
:100f6000ef03b000889fbe008a9fbe008c9fbe002a
:100f7000800678008e1f78000007eb00d1af9f003d
:100f8000a2b79f0065033700dfa8970054c2b300e3
:100f90008100e800d1af9f00844f500006003a0066
:100fa000010278000006eb0001c3b30000c2b300e9
:100fb000b7c2b3000e0037003d0290000404b20037
:100fc000040032001d027800004a7800840ee80018
:100fd000050037000000fb008d007800fb030700d0
:100fe000e10f40004d0332000e07e8004b033700cd
:100ff00084027800d2c2b30034437800824f530099
:101000000900320005003c00804f53000800320008
:10101000874f53000c003a0007003700814f530000
:1010200009003a00060037000c30a000f0ff37003e
:101030000c00a000eeff37000c10a000ecff370002
:101040000c20a000eaff37006202660001003200b7
:101050000c00a10068026600010032000c20a10013
:101060000602fb000403b100e90f52000c003e0031
:10107000050378000002eb00b603fb006a22b9000a
:101080000703b10086027800048243009603fb0048
:101090000703b100e98f5300f7ff3600080037005f
:1010a0000002eb00a7c2b300874f530004003a00d0
:1010b000afb197008502e80043027800a3b79f0014
:1010c0000003eb0096b79f00e6c2b300954f1300f4
:1010d0000c003a000ce0a00064435300d54f13000d
:1010e00003003200050378000000eb000900370020
:1010f000afb397008502e80047047800a7b79f00c8
:1011000098b79f0005037800090037006a00b9000e
:101110000080430086027800b603fb000703b1009d
:10112000e98f5300f9ff360090b79f00f5ff3700b5
:10113000b6427800cac6b300d6af9f008acf52002d
:10114000250032000f003c0036c6b30086cf5200a7
:101150009d00320004003c00e0cf5200f402320057
:101160006b4353000f00370046c6b30086cf5200d2
:10117000170032006543430086cf5200b1003a00a9
:101180001300370036c7b30086cf5200200032006c
:1011900007003c006443530086cf52001500320024
:1011a0000643e80086cf5200a6003a00140037003c
:1011b00056c7b30086cf5200a900320063434300f4
:1011c00086cf52009f003a00e5779f000e0037005f
:1011d000e5779f00a4003700f003660005012000ba
:1011e00001003200050028008c827200050678009c
:1011f000cfff3700e5779f000c60a0009a00370012
:10120000e5779f000c50a0000c70a00096003700fe
:10121000afb59700e5779f00cb027800abb79f0092
:10122000b5b79f00e08f520002003a0081b3200062
:10123000b1b79f003fb397008002eb000100370079
:101240008502e800e6c37a00e0cf5300fcff3a00d5
:10125000c5b79f001fb19700e00f51000500320095
:10126000cfb19700830f5100020031008202780055
:10127000c5b79f00cfb297000004eb00850f520066
:1012800001003600050452006806660009c2b3007a
:101290000f003200290037003d0290000404b20024
:1012a000040032001d027800094a7800840ee8002c
:1012b000050037008d00780000022000430307007e
:1012c000e10f4000010032000e07e8000804e900c9
:1012d000e00f5400f0ff3a000084eb0017003700e5
:1012e000bd0290000504b2000900320088027800b7
:1012f0009d03780035437800864b7800050478001c
:10130000870ee800e04f53000a003a001000370053
:10131000880278008d0078003500fb0084bf9f00b4
:1013200005047800290307000fba9700e10f400079
:10133000070032000e07e8000500370008027800b9
:101340003fb49700cfb497005fb59700efb5970013
:10135000890278008504e900e08f5200e0ff3a003e
:10136000b8b79f00c9b79f00dab79f00ebb79f00df
:101370000404780009c2b300e00f56000f003a00e1
:10138000660237003d0290000404b20004003200ff
:101390001d027800094a7800840ee8000500370035
:1013a0008d0078000002200008030700e10f4000d4
:1013b000010032000e07e8000804e900e00f5400c5
:1013c000f0ff3a0055023700afb097007003660097
:1013d00041047800a1b79f00cfc4de000905780062
:1013e0008a0578000800be000a01be004800de0041
:1013f000c80add0000807200e0779f00e00f530014
:1014000009003200e04f500007003200e14f400079
:101410000500320026002000f0779f00887f9f00a3
:10142000c6b79f000300370017002000c7b79f0012
:10143000f8779f0078fb2f0008844700b8b79f001b
:1014400084ff370069fb2f001a00200089844700c1
:10145000e5779f00b9b79f00cab79f007dff3700af
:10146000e5779f000c0cb3008c027800050cb200ed
:101470003b003a00e00f560005003d00afb2970078
:101480004501be004500be00a5b79f000f00370014
:10149000f0026600120032002fb497004803be002d
:1014a000f69f9f0087a79f00a8b79f009802900013
:1014b000cfaade0095a79f00a5a79f007f98970061
:1014c0008fa097001fa19700afa19700b0b79f0012
:1014d000c1b79f00d2b79f00e3b79f000b00370052
:1014e000afb09700c102780005047800cfc4de00d9
:1014f000090578008a057800a1b79f00b8b79f005a
:10150000c9b79f00dab79f00ebb79f003fb09700c5
:10151000cfb097005fb19700efb19700e00f500098
:10152000e08f5800e00f5900e08f590032003d0075
:101530006000b8006011b8003fb49700cfb49700c6
:101540005fb59700efb597003c00b300080450006a
:10155000898458000a0559008b85590022003700fc
:10156000e00f560005003d00afb297004501be00f8
:101570004500be00a5b79f000f003700f0026600cf
:10158000120032002fb497008004eb004803be0025
:101590000005eb0096af9f00a7af9f00b9af9f007b
:1015a000caaf9f001fa89700afa897003fa9970058
:1015b000cfa99700a8b79f00b0b79f00c1b79f0001
:1015c000d2b79f00e3b79f000b003700afb0970082
:1015d000c1027800a1b79f0005047800090020002f
:1015e0000a0020000b002000b8b79f00c9b79f0079
:1015f000dab79f00ebb79f009fb49700e08f5400cd
:101600000d003a001a0020003fb09700cfb09700bd
:101610005fb19700efb197009ab79f00e00f5000bd
:10162000e08f5800e00f5900e08f590002003200af
:101630008000eb0091b79f000c01780005042000aa
:10164000020cb20082b79f00850f510034003200b7
:1016500003003c00e00f5100080032004800370052
:10166000050820008fb19700858f510014003200cb
:10167000050c2000858f510041003a0086b42000ff
:1016800015c0b3003600be003601be003fb497005f
:10169000cfb497005fb59700efb597000040e10029
:1016a00001c8e10002d0e10003d8e10033003900b5
:1016b0008542e800f4cf5200f2ff3a002f003700d5
:1016c00015c0b30000012000010020006011b80027
:1016d0003fb49700cfb497005fb59700efb5970080
:1016e0000040e10001c8e10002d0e10003d8e100c0
:1016f00022003900490020000000d0008180d20083
:101700000281d2008381d2008904e900faff3a0005
:101710008542e800f0cf5200edff3a001700370095
:1017200015c0b30080002000010020006011b80047
:101730003fb49700cfb497005fb59700efb597001f
:101740000040e10001c8e10002d0e10003d8e1005f
:101750000a003900390020000000d0008180d2004a
:101760000281d2008381d2008904e900faff3a00a5
:101770008542e800f5cf5200edff3a00e5779f0083
:101780006f7597009fb597008a02fb008b8f520000
:1017900002003d00eb779f00040037001fb0970068
:1017a000850f500001003d0095b79f00e00f5200eb
:1017b00003003200e3026600010032000402e90087
:1017c0000500240085026600060032009fb09700e5
:1017d000810f520002003400010252000100370064
:1017e0000002eb006f7197008001eb008202fb00aa
:1017f000f3af9f00850f52000200340085025200b3
:10180000f5af9f00640266003b003200e202660012
:1018100061026600e08f520011003200bd029000ac
:101820000504b200080032009d027800b6c2b30081
:10183000e00f52000100320006c3e800864a78003b
:10184000850ee80015003700b0022000e00f5200be
:10185000010032000080e8008d0078000c003700a5
:10186000e00f52000e0032003d0290000404b2006e
:10187000050032001d02780005c2b300054a780059
:10188000840ee800050037008d007800000220007b
:10189000ce010700e10f4000010032000e07e80012
:1018a0007faa9700e00f52004f00320008c3b30038
:1018b000840478003d0290000404b2000400320069
:1018c0001d027800084a7800840ee8000500370001
:1018d0008d00780000032000bc010700e10f4000ec
:1018e000010032000e07e8008904e900f1ff3a0028
:1018f000f9af9f003c003700ffaa9700e08f52002d
:10190000140032006802660012003a0008c2b300f8
:10191000850478003d0290000404b2000400320007
:101920001d027800084a7800840ee80005003700a0
:101930008d00780000022000a4010700e10f4000a4
:10194000010032000e07e8008904e900f1ff3a00c7
:10195000f9af9f00e202660061026600e08f52006c
:1019600011003200bd0290000504b20008003200f0
:101970009d027800b6c2b300e00f520001003200b1
:1019800006c3e800864a7800850ee8001500370097
:10199000b0022000e00f5200010032000080e80099
:1019a0008d0078000c003700e00f52000e0032006e
:1019b0003d0290000404b200050032001d027800d0
:1019c00005c2b300054a7800840ee8000500370020
:1019d0008d007800000220007c010700e10f40002c
:1019e000010032000e07e8001fb3970005b4200085
:1019f0000602e900f0046600c223dd000c05780051
:101a0000c7a79f000a02b2006323b900e99f9f00a5
:101a1000060478004322dd00b8a79f00850242003b
:101a2000da9f9f00e5af9f00a30037009fb59700a6
:101a30000fb097008b05e900010420009bb79f00c1
:101a4000810f50007300320003003c00e00f500093
:101a5000080032007e003700040820000fb1970014
:101a6000840f510056003200040c2000840f5100f6
:101a700077003a00e00f56001f003d00efa99700e5
:101a80003304be002305be003fb09700cfb09700df
:101a90005fb19700efb197000802be000a03be00d5
:101aa000df0207000802be000a03be00e0779f00c5
:101ab0000000fb00cf80de00010178008201780089
:101ac000400307003fb29700cfb297005fb3970083
:101ad000efb397000002520081825a0002035b00bc
:101ae00083835b00b4b79f00c5b79f00d6b79f0044
:101af000e7b79f002e003700ef9a9700e08f520063
:101b0000220032006fab97003fb29700cfb2970030
:101b10003604be002605be000400be000801be005b
:101b200084bf9f00f5b79f000005eb0022fb070074
:101b30000801be00e0779f000000fb00cf80de00c0
:101b4000060207000fba9700ffb297008aaf9f0006
:101b50000004520081845a00d8a79f00e9a79f0083
:101b60008004eb00f9a79f005fa09700efa097000b
:101b70007fa197008fa99700b0b79f00c1b79f00c2
:101b8000d2b79f00e3b79f0009003700efa8970086
:101b90003fb1970011027800110009000481d800bc
:101ba000a4002000110009000480d800e1779f0004
:101bb000ef7197000343b000e3779f0024003700e4
:101bc00074b22000df9a9700e08f520001003200cb
:101bd00064b120003fb09700cfb097005fb197008d
:101be000efb197004fa397000603e900050033000b
:101bf0008301d1000281d3008180d3000080d30013
:101c0000f9ff37006f00600064407800e0779f00c4
:101c10000f0037003fb29700cfb297005fb3970035
:101c2000efb397003fa497000804e90005003300d4
:101c30008703d1000683d3008582d3000482d300ba
:101c4000f9ff3700674262000443b000e4779f0069
:101c50003d0290000404b200070032009d027800ab
:101c60006f729700844a7800850ee800e04f5200ba
:101c700007003a0007003700ef7497008d007800e6
:101c80000900fb00d1000700e10f40000100320015
:101c90000e07e8004fa59700bfa597006fa8970013
:101ca00064055500e385550068005000caa79f00f1
:101cb000bba79f00e0af9f009fb09700e08f500050
:101cc0005aff3a0068066600140032007fa99700a8
:101cd000e00f51001100340008c2b3008204780004
:101ce0003d0290000404b200040032001d0278009e
:101cf000084a7800840ee800050037008d0078005f
:101d000000022000b1000700e10f40000100320096
:101d10000e07e8008904e900f1ff3a00dfa9970007
:101d200013407800e0779f00e04f500096fc3a00a7
:101d30000e0078004f0778004f06be004f05be002a
:101d40004f04be00ef03b1000000060006c2b3005e
:101d50000002780004007800b042780086cf52007c
:101d6000fbff3200e9cf5200f9ff3200d6c2b300c8
:101d700086cf520003003a000002780016c0b3007c
:101d8000050037000043eb00b7c2b30087cf520015
:101d900001003a00000278000000eb00020037006a
:101da0006a00b90000804200b402fb000503b100e4
:101db000e98f5200faff3600e04f53000100320075
:101dc0000000ea0000000600881f78000004780088
:101dd00038029000f1026200e18f520006003a00e2
:101de000840278000520b2000800320098029000ba
:101df000e08f520005003200380290000080eb00b6
:101e00000440a00034049800200037000490a10092
:101e10003404980018029000e00f520007003400cc
:101e20000402e90014049800180278009442780033
:101e3000040ce8000580fb00050037003802900024
:101e40000404b200ecff3a0008007800110007001b
:101e5000380290000408b2000c003a00fa0f50005b
:101e600008003a0028029000e00f5200e2ff320022
:101e700018029000180ce9000402e800140498000d
:101e8000ddff3700ed0f5000e2ff32004f04780015
:101e9000000006000200fa00889fbe0000047800df
:101ea0000002eb008a9fbe00140498000080eb0043
:101eb00038029000610262004000320064c02000dd
:101ec0008042eb0094cf12000f0032004bc0200084
:101ed0002a102000c9fd2f008b8444003902900095
:101ee0002410b2008a0f520002003a000900780064
:101ef000aa000700ec8444008b8f5400f7ff3a00df
:101f000064c02000004aeb0058019000e00f51002f
:101f10000e003a0012049800ea80570012002000d8
:101f200048009000c0f90700e10f500003003a009c
:101f30006ff297000480fb00200037003802900009
:101f40000440a0003404980013003700a80090005b
:101f500048009000b4f9070010049800e00f50000a
:101f600003003200e10f40000d003a00030037008b
:101f7000380290000440a0000200370038029000b0
:101f80000403b30034049800a80290000002eb00a0
:101f9000050c7800140498000080eb00070037005f
:101fa000280290000000e900040c7800100498005a
:101fb00094427800040ce8000580fb004f05be0049
:101fc0004f04be000080fa0000000600889fbe009b
:101fd000010478008084eb0038029000e202620085
:101fe0003b00320004037800980290000620b20003
:101ff00002003a00e08f520035003a000490a00041
:102000008004780034049800f90fb200e08f520089
:1020100002003a00a8029000050c7800ea8f5400f4
:1020200005003a000408b20003003a008800780076
:10203000d0002000e5ff070018029000d8029000b1
:10204000850f52000b0032000402e80015c0b300f7
:102050001404980018027800094a7800040ce8007b
:1020600064c02000054a7800ea8f540018003a0046
:1020700005003700094078008800780071000700eb
:102080008004780012003700380290000410b2007b
:102090000f00320018019000a80090004800900046
:1020a00095f9070018029000840f500004003200d8
:1020b000380290000403b300340498008084eb00dd
:1020c0000002eb001404980028029000040c780031
:1020d000090078004f04be00000006000b00370026
:1020e00030427800e04f5200030032000201e90064
:1020f000b14f5200050032000480fb009542780089
:102100008582fb0005005000000006008102780077
:10211000e00f5100f2ff3a000200780000000600d4
:10212000e10f40001c003200310290001420b20088
:10213000e10f520015003a0021039000e00f530018
:102140001200320011029000d1029000850f52005f
:102150001000320091027800868f520002003a008f
:102160008508e800020037000402e80094009800a7
:102170009102e90031029000850878000404b20061
:1021800005003a00804a7800000006000080eb005d
:10219000000006000080eb0000000600881f7800a9
:1021a0000004780038009000000278001420b2008b
:1021b000e10f520005003a000002eb001404980001
:1021c00028029000040c7800190037008002780083
:1021d000242020002520b2000000eb00848f520054
:1021e00016003a00a8009000808f500013003200c3
:1021f00018019000800f510010003200480090003c
:102200003df9070018029000840f500003003200cf
:10221000380290000403b3003404980038009000a2
:102220000002eb001404980028029000040c7800cf
:102230000002b200010032000080eb004f04780081
:10224000000006000200fa00889fbe00010478002a
:10225000a0ff9f0038029000840278000504b200bd
:10226000020032000000fb0035003700e20262008d
:1022700005003a000403b3001504980034049800e4
:102280000080eb002e003700d8049000e08f54004f
:1022900006003a0012002000e68057004800900037
:1022a00015f907001904980023003700a8029000d0
:1022b000e08f520008003a0095c020000430a000d2
:1022c00025049800050c78003404980025002000af
:1022d000550498001504980018019000a80090007b
:1022e0004800900004f90700280290008082eb006b
:1022f00015049800affa9700054a7800040ce8002e
:102300002ffa9700ea4f52000b003a003802900073
:102310000410b2000800320018019000a8009000dc
:1023200048009000f4f807000002eb00a8029000bb
:1023300014049800050c78002ffa97000400fb00a5
:102340004f04be000080fa000000060000c0da0062
:102350000000060000c0da0000000600020ab90012
:10236000001bb9000200b800810042008100430058
:1023700000000600889fbe008a9fbe003004be0099
:102380002005be000404440085844c0006054d0071
:1023900087854d000898be000a90be000440e10009
:1023a00005c8e10006d0e10007d8e10002003100d5
:1023b000680040001008e8004f05be004f04be0052
:1023c000000006001000fa00889fbe008a9fbe0031
:1023d000110020000605be000404be003002be004d
:1023e0002003be00c4b79f00d5b79f00e6b79f008b
:1023f000f7b79f000802520089825a000a035b0067
:102400008b835b0084bf9f0095bf9f00a6bf9f008a
:10241000b7bf9f000498be000698be004fb2970059
:10242000dfb297006fb39700ffb397000820e10079
:1024300009a8e1000ab0e1000bb8e1000100390091
:102440008000eb004f05be00108810004f04be0056
:102450000080fa00000006001400fa00889fbe0009
:102460008a9fbe008c9fbe000006eb003e00070066
:10247000ccb79f00bcb79f00acb79f009cb79f0034
:102480008cb79f000605be000404be000d042000aa
:102490004fb39700bfb29700860343002fb2970057
:1024a000e00f530004003d003d0007000f00400016
:1024b000b0ff070003003700390007000f0040009d
:1024c000c0ff0700cfb2970095bf9f00e08f52007a
:1024d000090035002b000700140020000500200033
:1024e0006033b80000007200818072000201730046
:1024f000838173001c0007000c06e8008d0f560056
:10250000e3ff3a001fba9700e00f520005003d00bc
:102510000802be000a03be0000fe2f000f004000ac
:1025200094ff07004faa9700e00f520008003a00fe
:102530000fb497009fb497002fb59700bfb59700d1
:10254000d8b79f00e9b79f00fab79f008bbf9f00e5
:102550000c0007004f06be004f05be004f04be0032
:102560000080fa00000006000100070000000600dd
:1025700090b79f00a1b79f00b2b79f00c3b79f005d
:102580000000060001000700000006001fb09700d1
:10259000afb097003fb19700cfb1970000000600a1
:1025a0004f2bde00f9ff070086837300858242000f
:1025b0004f23de00a7b79f0086827200040242000c
:1025c00095b79f00ffaa97004f2bde00858242003f
:1025d0000602720084b79f006faa97004f23de00a7
:1025e0000402420086827200f5af9f004f18de00a1
:1025f00000027200e5ff0700e4af9f00000040000a
:102600008180480002014900838149000802be0020
:102610000a03be00d6ff070000fe2f0000000600e0
:10262000881f780018002000881f78008aff0700a4
:102630008f87e9004f04780000000600801feb0040
:1026400085ff07008f87e90000000600889fbe0015
:102650008a9fbe00e00f5000e08f5800e00f590045
:10266000e08f59000c003d006044b8006055b80090
:102670000000540081805c0002015d0083815d00e8
:10268000180020001500070008003d001800070092
:102690000004eb00050037000004eb000f0007000a
:1026a00002003d001200070018002000dcff0700b8
:1026b000e00f5400060032006022b8006033b8001a
:1026c0000000520081805a0002015b0083815b00a0
:1026d0004f05be004f04be0000000600e00f520090
:1026e000e08f5a00e00f5b00e08f5b000000060007
:1026f0006044b8006055b8000402540085825c0054
:1027000006035d0087835d0000000600889fbe0011
:102710008a9fbe008c1f7800e00f5000e08f5800a9
:10272000e00f5900e08f59000d003d006044b800f3
:102730006055b8001c0020000000540081805c003f
:1027400002015d0083815d000820e10009a8e1002d
:102750000ab0e1000bb8e1000d003d0008003700b1
:102760000006eb00e00f5200e08f5a00e00f5b0024
:10277000e08f5b0006003d006044b8006055b80083
:102780000402540085825c0006035d0087835d00bf
:10279000aaff0700e00f5600060032006022b800d2
:1027a0006033b8000000520081805a0002015b00d3
:1027b00083815b004f0678004f05be004f04be00ca
:1027c00000000600889fbe008a9fbe008c1f780014
:1027d0000006eb00e00f5000e08f5800e00f5900ba
:1027e000e08f590007003d006044b8006055b80014
:1027f0001c0020000000540081805c0002015d008c
:1028000083815d00e00f5200e08f5a00e00f5b0013
:10281000e08f5b0007003d006044b8006055b800e1
:102820000c00a2000402540085825c0006035d00d7
:1028300087835d000c000700e00f560006003200a1
:102840006022b8006033b8000000520081805a0056
:1028500002015b0083815b004f0678004f05be00dc
:102860004f04be0000000600889fbe008a9fbe0085
:102870008c9fbe000404b8000506b8008904460019
:1028800060854e000606b8000a054600e0854e0049
:102890000706b8008b054600040eb8008904460000
:1028a0000a854e00e0854d00050eb8000a05460079
:1028b0008b854e00060eb8008b0546000416b80046
:1028c0000a0546008b854e000516b8008b054600ac
:1028d000041eb8008b0546000800be000a01be00b9
:1028e0004f06be004f05be004f04be0000000600ac
:020000040000fa
:1028f000722c0000310d00000052000065620000e3
:102900006f6f0000740d00000a0000004d440000cd
:102910000d0a000000730000662c0000320d00005c
:10292000004100004f4b00000d0a0000006700004e
:10293000720d000000320000323000003030000024
:1029400030300000300d00000a00000073720000fb
:102950002c320000323000003030000030300000f7
:10296000300d000000670000647300000d000000df
:10297000736e00002c250000735f000042540000bd
:102980000d000000677300000d00000038300000eb
:102990003030000030300000303100000d0a0000ff
:1029a00000730000732c000038300000303000004d
:1029b00030300000303100000d000000707a00005f
:1029c0000d000000707300002c320000383200004f
:1029d00033380000373900003165000063350000ee
:1029e0003534000031330000303800003665000017
:1029f00030300000303200006364000039360000df
:102a00006165000063390000642c00000d000000c7
:102a1000706300002c38000066370000303800007a
:102a20003762000064660000646600003334000012
:102a3000623800003762000031300000666100003b
:102a4000626200006636000033360000623100002a
:102a500063640000352c0000323200002c3000008e
:102a6000320d000000700000632c000033360000bf
:102a7000323200003332000065350000633500005b
:102a800061390000346100006636000062330000e6
:102a9000306300006532000030380000663100000d
:102aa0006139000061650000336500002c320000d0
:102ab000322c0000303200000d0000007063000076
:102ac0002c63000064380000333000003630000012
:102ad0003933000061660000613400006139000094
:102ae00064610000353800006238000032320000b6
:102af0003463000064320000646500006437000045
:102b0000302c0000304100002c300000340d00005b
:102b100000700000632c0000636400003833000084
:102b20003036000030610000336100006661000053
:102b30003461000039640000613500003862000033
:102b40003832000032340000636400003264000058
:102b500065640000373000002c300000412c00007c
:102b6000303400000d000000776300000d0000000d
:102b7000760d000000250000752e00002575000070
:102b80002e2500007500000073750000772c0000f2
:102b900038660000373000003837000062640000fb
:102ba00066640000663300003462000038370000bd
:102bb0006231000030660000616200006266000061
:102bc00036330000366200003163000064350000d7
:102bd0002c25000064250000642500006425000009
:102be000640d000000730000757700002c330000b6
:102bf00036320000323300003265000035630000d9
:102c00003561000039340000616600003662000062
:102c10003330000063650000323000003866000089
:102c2000316100003961000065330000652c00004f
:102c300025300000346400000d00000057560000ed
:102c40002c30000030310000452c00000000000056
:020000040000fa
:102c5000889fbe00000478007805070000427800d5
:102c60000040eb00804f520026003200895880005f
:102c70007c05070000f47c008904e800895888007e
:102c800044062000848f540001003a00102bef000e
:102c900094588000e00f520003003200e10f520010
:102ca00016003a00090037008458800004044400ec
:102cb00078fa97000040eb00ed4f520011003a0007
:102cc00014002000945888000e003700122bef00eb
:102cd0008458800084024400f5fa97000040eb001d
:102ce000eacf520007003a008042780005747a006b
:102cf000102bef0010c0b300020037000000eb0003
:102d0000905888004f04be0000000600889fbe0057
:102d1000800478000144780090c0b30038070700b1
:102d2000e04f50000400320019407800e04f50009e
:102d300012003a000a0037000040eb00e04f540058
:102d4000f9ff32000b00370058407800e04f500088
:102d50000300320055050700890f5400faff3a00be
:102d6000340507006109200090c0b3001e0707006a
:102d700010c0b3004f04be00000006004b05070062
:102d800009047800f90f200088844400eeff370022
:102d9000460507002705070000000600889fbe00c3
:102da0008a9fbe00000578008125200020c0b30066
:102db0000d0707008004eb0028c0b3003b0620008d
:102dc0001e050700e04f50000600320025050700f1
:102dd000004d7800ea4f5000090032000a05e80073
:102de0008904e8000840780005070700e04f50001c
:102df00005003a008b8f5400f1ff360003003700c6
:102e000010c0b300010037000040eb004f05be00ca
:102e10004f04be00000006009042780014c0b300ca
:102e2000e0cf5200130032000042eb0091cf52007d
:102e300010003a000102e8001103b000d04278000f
:102e4000e0cf52000600320094cf520006003a0054
:102e5000810f5200060032000402e800f7ff37003d
:102e600014c0b300030037000042eb00010037003c
:102e70000042eb0004407800000006004f03b00061
:102e8000889fbe008a9fbe008e1f78008005780054
:102e90008125200020c0b300d30607004efc2f0080
:102ea0000f0747000004eb0029c0b3001a032000fd
:102eb000e2040700e04f500006003200e90407007a
:102ec000004f78000804e800ea4f50000700320085
:102ed0000e07e80009407800c9060700e04f5000df
:102ee0001a003a008a0f5400f1ff360010c0b300f8
:102ef000e00f54001a0032001b427800e04f5200ed
:102f0000170032000040eb00cfc29700854f5200ff
:102f100013003a004efc2f000f0747000002eb00a1
:102f200005003700db427800e0cf52000900320094
:102f3000decf520009003a000402e800840f54007a
:102f4000f8ff3e0010c0b300050037000040eb0062
:102f50000300370010c0b300010037000040eb0051
:102f60004f0778004f05be004f04be004f03b1006d
:102f7000000006004f03b000889fbe008a9fbe007d
:102f80008c1f78008e1f78000006780001457800bd
:102f90008125200020c0b300930607002efc2f00df
:102fa0000f0747000004eb0029c0b3001b032000fb
:102fb000a2040700e04f500006003200a9040700f9
:102fc000004f78000804e800ea4f50000700320084
:102fd0000e07e8000940780089060700e04f50001e
:102fe0001e003a008b0f5400f1ff360010c0b300f2
:102ff000e00f54001e0032001c427800e04f5200e7
:103000001b0032000c06e8008002eb0004003700d1
:10301000144278000c06e800e04f52001100320024
:103020008a4f520002003a000c0278000600370076
:1030300027fc2f008f83430067c37a00864f52001e
:103040000a003a000c0278008502e800850f54005f
:10305000efff3e0010c0b300050037000040eb005a
:103060000300370010c0b300010037000040eb0040
:103070004f0778004f0678004f05be004f04be0092
:103080004f03b10000000600889fbe008040eb00a7
:10309000804729001dff0700d047290077ff070060
:1030a000004278000040eb00804f52002f003200b9
:1030b000813e200020c0b3004b06070021e2a9009a
:1030c00028c0b30004003700084078004c06070011
:1030d000e04f500002003a00da22ab00faff3a005b
:1030e00001fa200020c0b3003f06070028c0b3004b
:1030f000040037000840780041060700e04f500008
:1031000002003a00da22ab00faff32008560a90023
:10311000002028002022b7002342a80001fa200046
:1031200020c0b3003006070038c4b30029c0b30084
:10313000070037000940780031060700e04f5000d3
:1031400009003a003d040700e04f5000f9ff32004b
:1031500044040700884f5000faff3a0060482900f5
:1031600046ff0700010037000040eb004f04be009f
:10317000000006001c00fa00881f78008040eb0069
:10318000b0482900e1fe0700104929003bff070075
:10319000004278000040eb00804f5200780032007f
:1031a0008040780070492900d8fe0700b049290006
:1031b00032ff0700e04f500009003a008040eb006a
:1031c000604a2900d1fe0700104929002bff0700a3
:1031d000004278000040eb00804f5200680032004f
:1031e0008040eb00304b2900c8fe07000e0078003d
:1031f00097fe0700e04f5000fcff32000044eb0058
:10320000484f9800e81f4700844b2900841f78002e
:10321000700047003cf707008840780070004700c6
:10322000bafe07001049290014ff07000042780089
:10323000e487570008407800884f52005000320061
:1032400088407800204c2900b0fe0700604c29001f
:103250000aff0700884f500009003a0088407800b4
:10326000104d2900a9fe07001049290003ff07009f
:103270000042780008407800804f52004000320041
:103280008040eb00e04d2900a0fe07001049290016
:10329000fafe0700004278000040eb00804f520029
:1032a0003700320080407800204e290097fe07004a
:1032b00010492900f1fe0700004278000040eb00b1
:1032c000804f52002e00320080407800805029004c
:1032d0008efe070010492900e8fe07000042780032
:1032e0000040eb00804f5200250032008040780003
:1032f0003053290085fe070010492900dffe070032
:10330000004278000040eb00804f52001c00320069
:1033100080407800e05529007cfe07001049290014
:10332000d6fe0700004278000040eb00804f5200bc
:1033300013003200804078009058290073fe070087
:1033400010492900cdfe0700004278000040eb0044
:10335000804f52000a00320080407800405b290014
:103360006afe070010492900c4fe070000427800e9
:103370000040eb00804f52000100320042ff070086
:103380004f0478000080fa00000006007e00fa007a
:10339000881f78004806200003003700b1030700ab
:1033a000080078009f050700a4030700e04f5000c5
:1033b000faff3a00017d200020c0b3008a05070013
:1033c0008040eb00805b290050fe070028c0b3005e
:1033d000040037000840780089050700e04f5000de
:1033e0003e003a007400470019fe0700e04f50000d
:1033f000f8ff32004e52900005cdb30085424200e6
:10340000e9cf52000a003600e04f52000a003200b5
:103410007502470000cdb300840278003443780081
:1034200080434300e9cf530008003e00030037000b
:10343000f402470001003700f40247008e007800d4
:1034400007cdb300e0c2b30004003700e04f5300e3
:10345000f1ff3a00f9ff37008458780035427800d0
:1034600007434200e94f5300fbff3600804f5200f4
:10347000f9ff32008048eb00c4072000841f47009a
:10348000a5072000851f470064025200841f4700e3
:10349000b45b2900841f78000e0078000cf507004b
:1034a000e88757000040eb004e3a9000e10f5200d1
:1034b0000b003a005e3a9000f70f520008003a0005
:1034c0006e3890006500680000f0a7000000ea0078
:1034d0000000e9004f00de00010037000040eb0073
:1034e0004f0478000080fa0000000600881f780072
:1034f00014c0b3000002fd00dfeab7000002fd00c7
:103500000042eb000002fd00d6eab7000002fd0019
:103510008002eb00755788000083eb008657880017
:1035200096578800655088000002fd00e0eab70069
:10353000e1eab700e2eab700e3eab700d9eab70088
:103540000002fd000002fd00daeab700dbeab70086
:10355000dceab700ddeab700deeab7000002fd00f2
:103560000002fd00e4eab700e5eab700e6eab700ca
:10357000e7eab700d7eab7000002fd000002fd004d
:10358000d8eab700edeab700e8eab700e9eab70021
:10359000eaeab7000002fd000002fd00ebeab70016
:1035a0000002fd005f0207000e030700040507008c
:1035b000ca040700e4e2a80001fa200020c0b3001a
:1035c0000905070028c0b30009003700084078004b
:1035d0000b050700e04f500005003200e4cfb300b8
:1035e00004007800dfeab7000040eb002e0037004f
:1035f000e242ab00f5ff320001fa200020c0b30028
:10360000f904070028c0b30009003700084078001b
:10361000fb040700e04f500005003200e4cfb30088
:1036200004007800dfeab7000040eb001e0037001e
:103630000c030700ea4f5000f4ff3a00cdfe0700ec
:10364000e04f500005003a00e4cfb3000002fd0057
:10365000dfeab7000002fd00130037004bff070050
:1036600048062000e04f50000b003a00d4cfb300d2
:103670000002fd00dfeab7000002fd000a0037008b
:10368000f8020700ed020700e04f500002003a0088
:1036900008007800e3040700e8020700e04f50004c
:1036a000f7ff3a0010c0b3004f0478000000060096
:1036b00067010700a0c0b300d1040700e04f50002d
:1036c0000700320064508000e00f52000e0032000c
:1036d0006f04070080007800a0c0b300c204070098
:1036e0006450800005002000e30f5200e08f5a0074
:1036f00080003e0004600100030037000b0037002b
:103700000d0037001300370078ff0700e04f50002e
:103710000300320024002000645088007500370048
:103720001400200064508800720037003000200030
:10373000d80107006f00370010002000d5010700f6
:10374000e282ab006b00320034002000645088003d
:103750006800370020002000ce010700e282ab00a5
:1037600005003a0010002000ca01070024002000d4
:10377000645088005f0037003603070074ad2000f6
:1037800014427800e04f52001b00320037ae200098
:103790009743780026ae20001643780015ae20002f
:1037a0009542780004ae2000144278008783fb0025
:1037b000871f78000683fb00861f78008582fb0048
:1037c000851f78000482fb00841f7800445c290078
:1037d000841f780020a72000cbf5070011c0b3009c
:1037e00020a7200049fd0700ea875700e04f50005e
:1037f00001003200d76aef0094ae20001442780036
:10380000e04f520006003200390207000042eb0090
:103810000002fd00e9eab700eaeab7000002fd0095
:1038200030c0b30076040700e04f50000a003200b9
:10383000a4ae200014427800e04f520006003a0087
:1038400009020700e04f500003003200210320006e
:1038500030c0b3006404070040c0b3006804070030
:10386000e04f5000180032007457800095578000d8
:10387000850f520011003200841f7800345f290048
:10388000841f780020a720009ff5070011c0b30017
:1038900020a720001dfd0700e4875700e04f5000df
:1038a00009003200ee0af800f20af900411f200078
:1038b00040c0b3004c04070003003700411f200044
:1038c00040c0b30048040700e0a02000e0fc07006f
:1038d000d6eab700e04f500006003200e16129004f
:1038e000e0a02000c4f30700e00f50000100320008
:1038f0006a0107000000060004002400343a880032
:1039000005022000103a800000826200fdff3200b4
:1039100004002900443a88004187a8000002eb0017
:1039200014278800342788004427880054278800fb
:103930006427880074038800840388009403880047
:10394000a4038800b4038800c4038800b40288007c
:10395000c4028800d4028800e4028800f4028800cf
:103960000403880014038800240388007416880068
:10397000b4168800f416880034178800741788007d
:10398000b4178800c8a2a800e2a4a800c842a800f2
:10399000e244a800c882a80062c0a800c9c2a8006a
:1039a0006600a800e002a8006940a800d8a2a8000c
:1039b00063c0a8009660a800de62a800df22a8000d
:1039c000df42a800de82a800cda2a900cd82a90016
:1039d000ec02a900ec22a900ccc2a900e4a2a90033
:1039e000cde2a900c9a2a900c982a900e802a900e4
:1039f000e822a900c8c2a900e0a2a900c9e2a90062
:103a0000e422a800e022a900e4e2a900e0e2a90083
:103a1000e4c2a900e0c2a900e042a800e062a80058
:103a2000e082a800d842a800d822a800dd62a90040
:103a3000d962a900d802a900f042a800f062a8004b
:103a4000e8e2a800cce2a900c8e2a900d582a9005a
:103a5000d182a900d5e2a900d1e2a900ec62a900b7
:103a6000e862a900cc62a900c862a900dc62a800d3
:103a7000d862a900dc82a800d882a900dd02a900d2
:103a8000d902a900dd22a800d922a900dd42a800a0
:103a9000d942a900ec82a900e882a900eca2a90001
:103aa000e8a2a900f4c2a900f0c2a900f4e2a900aa
:103ab000f0e2a900f502a900f102a900f522a9008f
:103ac000f122a900dcc2a800d8c2a900d8e2a8004f
:103ad000ff3ffc00f40b2000113a8000010262005d
:103ae000650420007605200027742000854b7800af
:103af000864b7800844b7800f40f2c00273580002b
:103b0000070062000770210080837300273588005a
:103b100007fc2f0021358000018063008001b30085
:103b20002035880051368000010062000030b3006b
:103b30005036880060368000808363000720a00034
:103b400067368800e1368000010262000490a00020
:103b5000e436880004042000173a80008483730050
:103b60000702780027742000854b7800864b780088
:103b7000844b78000000fc00240680000440a10073
:103b80000406b30024068800540580000400a00049
:103b90000410a1000420a000540588004405800002
:103ba00004c0a00004d0a10004e0a00044058800e7
:103bb000f4cf2f00700680000002620004a0a00075
:103bc00074068800940580003400b3000420a1002e
:103bd00094058800440580003400b3000420a1004f
:103be00044058800040023002105800084807000c3
:103bf0000102780004e0a10024058800140680007a
:103c00000480a1000490a00004a0a1001406880074
:103c10006405800004c0a10004d0a00004e0a1005d
:103c200064058800540580000440a0000450a100f1
:103c30000460a10054058800000006002eff070064
:103c40009bfe07000140fe004047a900fcff370033
:103c5000a458800005002000e40f5200e08f5a00b5
:103c60008b003e0004600100040037000a003700aa
:103c700020003700650037007f003700cda2a90083
:103c8000cd82a900ec02a900ec22a900ccc2a800b8
:103c9000e4a2a9007e003700cda2a900cd82a90030
:103ca000ec02a900ec22a900e4a2a90010c0b30014
:103cb00053030700e04f5000750032006416800087
:103cc0004622de000482ea00610262004622dd0034
:103cd000f5fb2f00661680008682620005027200e6
:103ce00064168800411f200010c0b3003e03070087
:103cf0006700370094ad200014427800e1026200b2
:103d0000cd2add00f6ff2d00671680000703630053
:103d100086827200651688000404a20061026200b7
:103d20004322dd0075ff2f00e616800086826200c8
:103d300005027200e4168800a4ad20001442780049
:103d4000e1026200cc2add00f6ff2e00671680003b
:103d50000703630086827200651688000404a200cf
:103d6000610262004922dd00f5df2f00e6168000c7
:103d70008682620005027200e4168800b4ad20005d
:103d800014427800e1026200e6ff2f00671780000e
:103d90000703630086827200651788000404a2008e
:103da000610262004a22dd00f5bf2f00e6168000a6
:103db0008682620005027200e4168800c4ad20000d
:103dc00014427800e102620085824200d6ff2f0093
:103dd00067178000070363008682720065178800fa
:103de0000404a200610262004422dd00f5fe2f00ff
:103df000e61680008682620005027200e4168800e2
:103e0000ccc2a800e4a2a90021003700f4ad200034
:103e100014427800e34f420009003200e24f4200b2
:103e20000e003a00cda2a800cd82a900ec02a900a4
:103e3000ec22a900ccc2a800e4a2a800140037001c
:103e4000cda2a800cd82a800ec02a900ec22a90016
:103e5000ccc2a800e4a2a8000d003700cda2a800a3
:103e6000cd82a800ec02a800ec22a800ccc2a800d9
:103e7000e4a2a80006003700cda2a900cd82a900c7
:103e8000ec02a900ec22a900ccc2a900e4a2a8007f
:103e900000000600a05888000000060014c3b3000c
:103ea00075a120009542780084c26a008582fb00db
:103eb0008502e900cf2ade0005007800d9eab700c4
:103ec00095a120009542780084c26a008582fb009b
:103ed0008502e900cf2ade0005007800daeab700a3
:103ee000b5a120009542780084c26a008582fb005b
:103ef0008502e900cf2ade0005007800dbeab70082
:103f0000d5a120009542780004c26a000482fb001b
:103f10000402e9004f22de0004007800dceab7006a
:103f20000000060001e5a90001a5a9000185a9007e
:103f3000f4cf2f00052880000502620004a0a00035
:103f400004b0a1000428880000e5a90000c5a9006c
:103f50000005a900f4ff230026502000160b620084
:103f60000385a9000345a8000225a9000002eb0073
:103f70009433880005e5a9000565a9000545a90059
:103f80000525a9000505a90045c0b3008002fd0074
:103f900004e5b7008002fd001fe5a80005fe2f0024
:103fa000e6512000168b6200f528800005d0a000a5
:103fb00005e0a100f52888001dc5a800f50f2e001a
:103fc000c6512000168b620005fc2f00c651200050
:103fd000168b620005f82f000618800086826200aa
:103fe0005500b3000518880004298800e4298800da
:103ff000c42a8800242088000002fd000ce5b700d8
:104000000002fd00f50f2c00c6502000168b620048
:104010000ec5a8000ee5a800842888009428880012
:10402000ff3ffc0001e5a8000a25ab00feff3200bf
:1040300000c5a8000a25ab00feff320014c0b30083
:1040400004007800d8eab7001de5a80085a0a90003
:104050000885a90095a0a8000000fc001dc5a800c7
:104060001dc5a900000006000400280005288000e6
:104070000502620004003a0001e5a8000040eb00e0
:10408000d8eab700190037000a25ab000a00320051
:1040900084ad200014427800e04f520006003a0040
:1040a00000c5a80014c0b30004007800d8eab70027
:1040b0000040eb000d0037005428800062026200cf
:1040c0000040eb000900320084ad2000144278006b
:1040d000804f52000500320010c0b300eaeab7007a
:1040e0001dc5a8001dc5a90095a0a80000000600d8
:1040f000962880000700200084288000c033dd005f
:104100000600200005002000040273008582730071
:1041100066588000775880000402430085824b0077
:1041200064588800755888000a4bec000aebb70009
:10413000e54f50000e003a00ee0af800f00af900d0
:1041400052002000030020000400be009af1070086
:10415000460add004a00de0000007200ca08de00e8
:10416000705788000c2bef000e2bef000a6bef004e
:104170000002eb008428880094288800040078005e
:104180000ce5b7000ee5a80000000600801f7800cf
:10419000841f780085a0a9000885ab0009003200c3
:1041a00001e5a90014c0b3000002fd00e9eab70070
:1041b0000002fd000885a9000805a90095a0a90036
:1041c000050037000805ab00030032000805a90010
:1041d0001dc5a8001dc5a9004f0278004f0078003a
:1041e000004006000480200014488800044888002d
:1041f0006490200044508800345088000429ef0067
:104200000409f8000a0af900240220004411880079
:104210008400280004118800044020001411880044
:104220008560a9008c20a9009560a8009c20a800aa
:10423000000006009580a80000000600ff3ffc007b
:1042400024488000e00f520003003a000000fc0008
:104250000040eb00020037000000fc0010c0b3007b
:1042600000000600ff3ffc0024488000e00f5200e1
:1042700003003a000000fc000040eb000a00370099
:104280000429ed000000fc00144880003440780050
:1042900014488800f58f2000850f52000200360078
:1042a000048020001448880000000600345080007c
:1042b000005a78003450880055a02000850f520025
:1042c000020036006490200034508800ff3ffc005c
:1042d00055508000f40f2000848f520001003e00f2
:1042e0000a2aec000000fc0000000600ff3ffc0072
:1042f000545080000000fc0000102000040050001a
:1043000000000600ff3ffc0024488000e00f520040
:1043100003003a000000fc000040eb0003003700ff
:104320000000fc00144880001440780000000600e3
:10433000801f7800849fbe008560a9003511800031
:1043400004488000055a780004488800f58f200052
:10435000850f5200020036000480200004488800c7
:1043600025488000f40f2000848f520001003e0099
:104370000429ec004f02be004f0078000040060008
:10438000801f7800849fbe00861f780054508000f4
:10439000e00f5200110032000420200015118000af
:1043a000050262000e003a008580a900445080009a
:1043b000344378008682fb00251188004450880031
:1043c00055a02000850f52000200360064902000a6
:1043d000445088000a2aed00010037009580a900aa
:1043e0004f0378004f02be004f00780000400600e7
:1043f000801f7800849fbe008c20a9002222ab0081
:104400000f0032003511800004488000055a780002
:1044100004488800f58f2000850f52000200360006
:10442000048020000448880025488000f40f200004
:10443000848f520001003e000429ec002222a900d2
:104440002242a9002262a9004f02be004f0078005c
:104450000040060044ae200014427800e04f5200b5
:104460001000320050c0b30065010700e04f50005b
:104470000c00320054168000700262000402e90051
:104480004f22de000002fd00e0eab7000002fd005e
:10449000e46aef0014c0b3000002fd00d7eab700e1
:1044a0000002fd0054ae200014427800e04f52009c
:1044b0001100320060c0b30051010700e04f50000e
:1044c0000d00320004002400551680000502620031
:1044d0000402e9004f22de000002fd00e1eab7001d
:1044e0000002fd00e56aef0014c0b3000002fd0009
:1044f000d7eab7000002fd0064ae20001442780045
:10450000e04f52000f00320070c0b3003c010700c2
:10451000e04f50000b00320014178000610262006f
:104520000400a2000002fd00e2eab7000002fd0064
:10453000e66aef0014c0b3000002fd00d7eab7003e
:104540000002fd0074ae200014427800e04f5200db
:104550000f00320080c0b30029010700e04f500077
:104560000b00320004022000d51680000502620014
:104570000402e9004f22de0004007800e3eab700fd
:10458000e76aef0014c0b30004007800d7eab70070
:10459000000006003600f800809fbe00829fbe002b
:1045a000849fbe00869fbe008660a90055168000cd
:1045b000c42ade00e1c2620004ae2000144278008a
:1045c00084cf520008003a00b104200050c0b3006c
:1045d0000501070014c0b3000002fd00e4eab700c3
:1045e0000002fd0001003700e46aef00551680006c
:1045f000ce2ade00e1c2620014ae20001442780030
:1046000084cf520008003a00b104200060c0b3001b
:10461000f500070014c0b3000002fd00e5eab70092
:104620000002fd0001003700e56aef001517800069
:10463000e1c2620024ae20001442780084cf520010
:1046400008003a00b104200070c0b300e600070083
:1046500014c0b3000002fd00e6eab7000002fd004e
:1046600001003700e66aef00d5168000c52ade009b
:10467000e1c2620034ae20001442780084cf5200c0
:1046800008003a00b104200080c0b300d600070043
:1046900014c0b3000002fd00e7eab7000002fd000d
:1046a00001003700e76aef004f03be004f02be0073
:1046b0004f01be004f00be003600f900004006006a
:020000040000fa
:1046c0000a0b000006000000800000000c0a000039
:1046d000e800000080000000100b00000400000053
:1046e00080000000140b00000200000080000000a9
:1046f000f40a00001600000080000000000800001e
:104700000c020000800000000c0c00000200000001
:1047100080000000160b0000ca00000082000000ac
:1047200030313200333435003637380039414200f9
:104730004344450046003000313233003435360002
:1047400037383900616263006465660000286e00d6
:10475000756c6c00290000000100000000000000e2
:1047600000000a00000000000000000000640000db
:104770000000000000000000e8030000000000004e
:1047800000001000270000000000000000a08600cc
:10479000010000000000000040420f000000000087
:1047a0000000800096980000000000000000e1007a
:1047b000f50500000000000000ca9a003b00000060
:1047c00000000000e40b5400020000000000e800bc
:1047d00076481700000000000010a500d4e8000093
:1047e00000000000a0724e00180900000000400008
:1047f0007a10f3005a0000000080c600a47e8d00ed
:104800000300000000c16f00f286230000000000da
:104810008a5d78004563010000006400a7b3b6001c
:10482000e00d000000e889000423c7008a000000b2
:10483000e00b00002600000082000000070c0000d2
:1048400000070c000900000000020000090c000035
:1048500000090c000e020100000000000000000032
:10486000000000000602020000000000e00b000053
:10487000060c000006000000800000000e0c000086
:1048800002000000820000000100000000000000a3
:020000040000fa
:1048900004002800b53180000502620004003a00df
:1048a00032e6a80037e6a800a00020000a00370082
:1048b0003006d5004f02dd00f5ff270066168000a8
:1048c00086826200050272006416880037e6a9003d
:1048d00032e6a9000053270000000600de44a900cc
:1048e0003346a900f4cf2f0025632000950a62000b
:1048f00032c6a90032a6a90004fe2f00953180001f
:10490000050262002401b3009431880032e6a80059
:1049100031e6a90037c6a90037a6a900000c20007f
:104920003626b7003686a800c4ff2f006563200036
:10493000950a62003726a900680040003900070088
:1049400037e6a8008640a9009640a80000000600af
:10495000801f7800849fbe008640a9003726a900ea
:1049600004002800b5318000050262000800320012
:104970003026ab000600320004fe2f009531800087
:10498000050262003401b300943188000900370049
:1049900004002800b53180000502620005003200e5
:1049a00004fe2f0095318000050262002401b3004f
:1049b000943188004f02be004f007800004006008e
:1049c0000002eb0004098800c4088800f4f3210009
:1049d000e4088800000028002021b7008780a90093
:1049e0009780a800000006000080fb000000400047
:1049f00044af200000004200018840000000060093
:104a00000080fb000000400044af200064007800fc
:104a100000f0a7000000ea000000e9004f00de00ff
:104a200000000600881f7800800078000040eb003e
:104a3000edff07000044eb00010037000140fe00dd
:104a400008407800eeff0700e04f5000fbff320007
:104a50004f04780000000600801f7800849fbe008d
:104a6000869fbe008780a9000002eb00040342007d
:104a700047af200067037b00e00f530005003200c2
:104a80008402420007037800e6837a00850243002f
:104a9000870ae9000402e800eb0f5200f3ff3a0036
:104aa0004f03be004f02be004f00780000400600da
:020000040000fa
:020000040001f9
:0457f0003f0700006f
:020000040000fa
:020000040001f9
:0457f400ffee0000c4
:020000040000fa
:020000040001f9
:0457f8007f610000cd
:020000040000fa
:020000040001f9
:0457fc00ba3b0000b4
:00000001FF
