:020000040000FA
:06000000B3EF08F012004E
:020006001200E6
:0600080014EF00F01200ED
:02000E000200EE
:1000100088110000380000001E0000008011000060
:080020000004000008000000CC
:08002800DACFE4FFE2CFDAFFBA
:10003000E9CFE4FFEACFE4FFD9CFE4FFDACFE4FF72
:1000400000CFE4FF01CFE4FF02CFE4FF03CFE4FFE2
:10005000F6CFE4FFF7CFE4FFF8CFE4FFF5CFE4FFFE
:10006000F3CFE4FFF4CFE4FFFACFE4FFFBCFE4FFEC
:100070000FEE04F0040EE80403E3EECFE4FFFBD739
:10008000E6529D50100B1AE09E50100B17E0000135
:100090003551345D04E3ACA211D09D980FD032C02D
:1000A000E9FF33C0EAFFEF50AD6EB9DB02E08D8EA1
:1000B00001D08D9E342B322B000E33239EAA06D006
:1000C000ABA202D0AB98AB88AECF52F0F2A42FD047
:1000D000F29450C0E6FF51C0E6FF5DEC08F042E943
:1000E0009EDB02E08D8E01D08D9E00013C5108E127
:1000F0003E513E2B240804E23E6B010E3F6F8D966D
:100100003D513D2B1E0811E238510FE13D6B3C6B18
:100110006CA2FED70001005102E1370E6D6E030E96
:10012000005D01E18E688D728D848D8C8D8A030E49
:100130000001005D62E1A4AA60D06BA202D06B98BE
:100140006B886ECF54F054C036F0C00E3615C00820
:1001500003E00001385111E08E900001010E386F6C
:10016000446B456B466B476B5551552BEA6A010F43
:10017000E96E000EEA2254C0EFFF040E555D2DE13A
:100180008E92386BC00E0001015D02E10F0E066F0A
:100190000001010E3B6F3A6F3A5105E03B5103E11C
:1001A000556B8E941AD08E960001010E326F000EA0
:1001B000336F346B060E356F9D880001556B010E51
:1001C0003A6F3C6F3F6B8D863E6B8D943B5105E0E3
:1001D0003A6B3B6B386B556B8E985551080805E2AE
:1001E000556B386B3A6B3B6B8E688D708D7C8D5088
:1001F000010B02E08D8E01D08D9E0001005101E0C7
:10020000ECD0A4AAEAD06BA202D06B986B886ECF18
:1002100053F053C036F08D708D7A8D50010B02E093
:100220008D8E01D08D9E000138510AE1FE0E000135
:10023000365D06E0FD0E365D03E0F40E365D10E13E
:100240000001010E386F5551552BEA6A210FE96EF6
:10025000000EEA2236C0EFFF446B456B466B476BDE
:10026000040E0001555D01E0AFD0FF0E0001245DDA
:1002700001E0AAD00001556B386B5551EA6A210F95
:10028000E96E000EEA22EFCF37F0FE0E0001375D77
:100290005DE10001010E3A6F000123510401015D8F
:1002A0000001236F48C0E6FF49C0E6FF4AC0E6FFF1
:1002B0004BC0E6FF22C0E6FFA3DA0001226F4CC06C
:1002C000E6FF4DC0E6FF4EC0E6FF4FC0E6FF23C08D
:1002D000E6FF96DA0001236F0F01060E086FC00ECD
:1002E0000001221508CFE7FFE75204E0E8427F0B48
:1002F000E706FCE1C00FE66E0001555195DA3F0EAE
:1003000000012215800FE66E000155298DDA0F01DC
:10031000060E086FC00E0001231508CFE7FFE75255
:1003200004E0E8427F0BE706FCE1400FE66E020EB8
:100330000001552579DA3F0E00012315E66E030E04
:100340000001552571DA75DA150EEF6EFD0E00010C
:10035000375D16E10001010E3B6F55514BDAC00EBF
:10036000EF6E552947DA800EEF6E020E552542DA00
:10037000400EEF6E030E55253DDAEF6A5ADAEF6A4A
:1003800000013A510DE13B510BE1F40E0001375DE4
:1003900007E10001010E3C6F3F6B8D863E6B8D9433
:1003A00000013A5102E13B5109E00001110E326FA8
:1003B000000E336F346B060E356F9D8800013B5184
:1003C00003E03A6B3B6B386B00015551080805E2BE
:1003D000556B386B3A6B3B6B8E68E5520FEE07F04E
:1003E000040EE80403E3E5CFEDFFFBD7E5CFFBFF09
:1003F000E5CFFAFFE5CFF4FFE5CFF3FFE5CFF5FF5B
:10040000E5CFF8FFE5CFF7FFE5CFF6FFE5CF03FF38
:10041000E5CF02FFE5CF01FFE5CF00FFE5CFDAFF33
:10042000E5CFD9FFE5CFEAFFE5CFE9FFE5CFDAFF7A
:100430001100D9CFE6FFE1CFD9FF85E944E8056A8D
:10044000066A076A086A0550005C065001580750A2
:100450000258085003580CE30400D950050FE96E08
:10046000DACFEAFFEE2A000EEE22EE22EE22EBD7E2
:1004700045E9E7CFD9FF1200D9CFE6FFE1CFD9FF99
:1004800084E943E8046A056A0E0ED89005BE03D0DD
:10049000045C000E055830E26CA2FED704EB04FFAA
:1004A00005EB05FF0F01066B05BF0669D9CFE9FF14
:1004B000DACFEAFFEE500425F36EEE500521F46E1C
:1004C000EE500621F86EF4CFF7FFF3CFF6FF0800E9
:1004D000F550066E06EBE6FF75EC08F041E99FD992
:1004E00002E08D8E01D08D9E100EE66E270E91D902
:1004F000042A000E0522C8D7500EE66EC30E89D915
:1005000044E9E7CFD9FF1200D9CFE6FFE1CFD9FF09
:1005100081E942E8FE0E016E0001030E006F926A4F
:10052000896A936A8A6A946A8B6A956A8C6A966AFF
:100530008D68976A8E68986A8F6A996A906A9A6AD3
:10054000916A400EE66EE66AEC0EE66E6EEC07F01F
:1005500043E9400EE66EE66A6C0EE66E2CEC07F0A0
:1005600043E9970EE66E42EC08F041E950C0E6FF21
:1005700051C0E6FF5DEC08F042E9D08E9F8AA58A63
:100580009EAA04D023EC08F0026EFAD7A4AA04D0E5
:1005900004EC08F0026EFAD7B20EE66E0F0EE66EAD
:1005A000000EE66EABEC07F043E98D96600EE66E4A
:1005B000AE0EE66E0A0EE66EE66A3BDF44E9000127
:1005C000005108E1010EE66E0D0EE66E000EE66EBD
:1005D00053DF43E9030E0001005D30E10F0EE66ECC
:1005E0000D0EE66E000EE66E47DF43E9190EE66E6D
:1005F0000D0EE66E000EE66E3FDF43E9230EE66E5B
:100600000D0EE66E000EE66E37DF43E92D0EE66E48
:100610000D0EE66E000EE66E2FDF43E9370EE66E36
:100620000D0EE66E000EE66E27DF43E9410EE66E24
:100630000D0EE66E000EE66E1FDF43E98D86F28A30
:10064000F296F298F096F098F09A9E9AA49AF29CFC
:10065000F28E836A0001FE0E406F416B426B436B6A
:100660000F0E816E000144C004FF45C005FF46C067
:1006700006FF47C007FF442B000E452346234723B0
:10068000D8900F010751000A08E6B80E045D880EE5
:100690000559000E0659000E075901E2A5D0F29E39
:1006A00000013C5108E0011C8C6E00016A0E506F85
:1006B000670E516F07D001EB8CFF00015E0E506F8B
:1006C000E60E516FF28E0001395122E000014051D7
:1006D0004111421143111CE0020EE66EE66AE66A21
:1006E000E66A40C0E6FF41C0E6FF42C0E6FF43C005
:1006F000E6FF60EC05F0E552E5CF43F0E5CF42F0D0
:10070000E5CF41F0E7CF40F00150E824016E21D061
:100710000001405141114211431118E0020EE66EF2
:10072000E66AE66AE66A40C0E6FF41C0E6FF42C00C
:10073000E6FF43C0E6FF0EEC05F0E552E5CF43F0DF
:10074000E5CF42F0E5CF41F0E7CF40F001407F0B2D
:10075000016ED89000014351000A08E6020E405D88
:10076000000E4159000E4259000E43590AE20001A1
:10077000020E406F416B426B436B0001010E396FFB
:1007800017D000014335000E431909E6D880800ECA
:100790004055000E4155000E4255000E435508E2EB
:1007A0000001800E406F416B426B436B0001396B5F
:1007B0000001446B456B466B476B04000001005120
:1007C00013E100013F5110E09D50100B0DE1F29E2E
:1007D000010EE66E0D0EE66E000EE66E4DDE43E98E
:1007E000F28E00013F6B8D8604003CD743E9E7CFD2
:1007F000D9FF1200EA6A110FE96E000EEA22120018
:1008000021EC04F0B1EC05F09BEC04F041E9E75079
:100810001200E66EE66AE66A0CDE44E912009070A9
:100820008D708D50010B1200E5DFE552E750EF6E41
:100830001200040E5525DEDFEF6A050E5525FAEF8E
:0208400003F0C3
:0E084200D89801D0D88851E8D9CFE6FFDACF98
:10085000E6FFE1CFD9FFE2CFDAFF94E9089E04E793
:1008600000AE02D0006C088E80EB0CF00B6A0A6AB6
:10087000096A860E0D6E0E6A3EEF04F00C500B10E6
:100880000A10091055E00EBE4DD00CBE0CD00D5014
:100890000E1048E0D89009360A360B360C360D0695
:1008A000D8A00E06F2D70E5031E10D282FE009AE88
:1008B00011D07F0E091402E10AA00CD00A2AE86ABE
:1008C0000B220C2207E3D8800C320B320A320D2A9D
:1008D0000D281CE00D5026E08AEB00F08BEB01F0B8
:1008E0000C34026E0D30036E0232039E08BE038E7E
:1008F000E552E5CFDAFFE7CFD9FF4EE912007F0ED0
:10090000036EFF0E026E016E006EF2D77F0E08BE00
:10091000FF0E036E02D07F0E036E800E026E016A20
:10092000006AE6D708AE04D0800E036E026AF7D7DD
:10093000036A026AF4D745E8D9CFE6FFDACFE6FFCB
:10094000E1CFD9FFE2CFDAFF8BE9086AECEC04F0E3
:1009500008B6AFEF04F008AA0AD008BC03D07F0E97
:10096000006E1BD0800E006E18D0006A16D008B83A
:10097000FCD7870E0360F1D77E0E0364F6D7860E90
:10098000035C04E0D8900232032AF9D708AC03D004
:10099000026C02AEEAD782EB00F0E552E5CFDAFF57
:1009A000E7CFD9FF48E912000636073602E308848C
:1009B000087E06E10880076A066A056A046A120072
:1009C000072803E0D88006321200D890063202E1F0
:1009D00008821200088612000236033602E3088CF1
:1009E000087E06E10888036A026A016A006A12004A
:1009F000032803E0D88002321200D8900232EAE1E4
:100A0000088A120045E8D9CFE6FFDACFE6FFE1CF4A
:100A1000D9FFE2CFDAFF8FE90C6A1200F3DF0C8016
:100A200001D0F0DFE86A03AE1FEF05F0006C011E95
:100A3000021E031E0122022203220CB00C7E07AE0E
:100A40002AEF05F0046C051E061E071E052206226D
:100A500007220C7E39EC06F007BE5BEF05F00CAE0A
:100A60000FD0046C051E061E071EE86A052206222A
:100A70000722086C091E0A1E0B1E09220A220B22DD
:100A80000CB00AD088EB00F089EB01F08AEB02F0A1
:100A90008BEB03F00CA008D084EB00F085EB01F0A9
:100AA00086EB02F087EB03F0E552E5CFDAFFE7CF04
:100AB000D9FF49E9000C0CBE31EF05F0E1DFFF0C76
:100AC00044E8D9CFE6FFDACFE6FFE1CFD9FFE2CFA6
:100AD000DAFF8EE980EB08F081EB09F082EB0AF097
:100AE00083EB0BF004500802F350006EF450016EDB
:100AF00004500902F3500126000EF420026E045047
:100B00000A02F3500226000EF420036E04500B027A
:100B1000F350032605500802F3500126F450022238
:100B2000000E032205500902F3500226F45003225E
:100B300005500A02F350032606500802F35002261D
:100B4000F450032206500902F3500326075008020E
:100B5000F3500326E552E5CFDAFFE7CFD9FF48E9A6
:100B6000000C4AE8D9CFE6FFDACFE6FFE1CFD9FFA4
:100B7000E2CFDAFF94E9086AD4EC04F0ECEC04F07C
:100B800008B67FEF04F008A205D008B87FEF04F0A4
:100B900086EF04F008AA05D008B07FEF04F086EFD6
:100BA00004F008B002D008A802D092EF04F00E6A58
:100BB000035007240D6EE86A0E227E0E0D5EE86A71
:100BC0000E5A096A0A6A0B6A0C6A02500602F4504D
:100BD0000C6EF3500B6E01500602F3500A26F450CF
:100BE0000B22000E0C2202500502F3500A26F4508C
:100BF0000B22000E0C2200500602F3500926F4507E
:100C00000A22000E0B220C2201500502F350092685
:100C1000F4500A22000E0B220C2202500402F35060
:100C20000926F4500A22000E0B220C220050050265
:100C3000F4500926000E0A220B220C220150040255
:100C4000F4500926000E0A220B220C223EEF04F07B
:100C500045E8D9CFE6FFDACFE6FFE1CFD9FFE2CF13
:100C6000DAFF8FE90C6A1200F3DF0C8003D0F0DFAB
:100C700001D00C820B6A0A6A096A086A200EE76EC4
:100C8000D8900436053606360736083609360A3651
:100C90000B360050085C0150095802500A580350A6
:100CA0000B5809E30050085E0150095A02500A5AD5
:100CB00003500B5A042AE72EE4D70CB212000CB0F2
:100CC0000AD088EB00F089EB01F08AEB02F08BEBA5
:100CD00003F00CA008D084EB00F085EB01F086EB6C
:100CE00002F087EB03F0E552E5CFDAFFE7CFD9FF5B
:040CF00049E91200BC
:0C0CF40056455253494F4E20332E3031EC
:100D0000000D0D0D0D0D3C2B442529443D2A375572
:100D10004D0085083030303030555378F6FF0401EF
:100D2000FF0F30555379F6FFC300FF0F3055537A4C
:100D300001000E00FF003055453136303030303084
:100D400030554E3137303030303030000000000048
:100D50000000000000000000000000000000000093
:100D60000000000000000000000000000000000083
:100D70000000002056332E303120383732322056D2
:100D8000617269616E20746F7563682D736372653B
:100D9000656E20636F6E7665727465722E20467282
:100DA00065642042726F6F6B732C204D6963726FA4
:0A0DB0006368697020496E632E002D
:060DBA000E0EF66E000EA5
:100DC000F76E000EF86E00010900F5505B6F090028
:100DD000F5505C6F03E15B6701D03DD00900F55031
:100DE000566F0900F550576F0900F550586F09000C
:100DF0000900F550E96E0900F550EA6E0900090096
:100E00000900F550596F0900F5505A6F09000900A3
:100E1000F6CF5DF0F7CF5EF0F8CF5FF056C0F6FF8B
:100E200057C0F7FF58C0F8FF0001595302E15A5369
:100E300007E00900F550EE6E5907F8E25A07F9D7B6
:100E40005DC0F6FF5EC0F7FF5FC0F8FF00015B0703
:080E5000000E5C5BBFD712002D
:080E5800D9CFE6FFDACFE6FF77
:100E6000E1CFD9FFE2CFDAFF85E96C6A6B6A02B0A5
:100E70006C8802A202D06C8C6B8C02B46C8E02A6C1
:100E800002D06B8801D06B8A02A802D06C8401D09A
:100E90006C9402BA6B8602AC02D0A38A01D0A39AEA
:100EA00002AE02D0A38801D0A39800EB6FFF0F0120
:100EB00001EB04FF056B04CF7DFF6C8A6B8E98926B
:100EC00098846C50100B04E06C50800B01E1988208
:0C0ED00041E9E5CFDAFFE7CFD9FF1200BF
:040EDC00D9CFE6FF85
:100EE000DACFE6FFE1CFD9FFE2CFDAFF85E9AC6ADE
:100EF000AB6A02B0AC8802A202D0AC8CAB8C02B45C
:100F0000AC8E02A602D0AB8801D0AB8A02B8AC840A
:100F100002BAAB8602AC02D09D8A01D09D9A02AE85
:100F200002D09D8801D09D9800EBAFFF01EB04FF3C
:100F300004CF7FFFAC8AAB8E949C948EAC50100B88
:100F400004E0AC50800B01E1948C41E9E5CFDAFF7D
:060F5000E7CFD9FF1200FB
:0A0F5600D9CFE6FFDACFE6FFE1CFC6
:100F6000D9FFE2CFDAFF85E9ACA2FED700EBF6FFAE
:100F700001EBF7FF02EBF8FF0800F5CFE6FF8CEC82
:100F800008F041E9D9CFE9FFDACFEAFFEFCFF6FF6A
:100F9000EE2AEFCFF7FF000EEE22EFCFF8FFEE22A2
:100FA0000800F550E1E141E9E5CFDAFFE7CFD9FFED
:020FB00012002D
:0E0FB2000A0D56617269616E20746F75636876
:100FC0002D73637265656E20636F6E7665727465EE
:100FD000722E20467265642042726F6F6B732C20F4
:100FE0004D6963726F6368697020496E632E200AD1
:100FF0000D0031373A33353A3438004F63742030BE
:0710000039203230313600C7
:08100800D9CFE6FFDACFE6FFC5
:10101000E1CFD9FFE2CFDAFF82E941E8F20E0F011A
:1010200009176BAC03D009916BB009816BB40985CA
:101030006BB209876E50026E025042E9E5CFDAFFCB
:06104000E7CFD9FF12000A
:0A104600D9CFE6FFDACFE6FFE1CFD5
:10105000D9FFE2CFDAFF82E941E8F20E0F010A1769
:10106000ABAC03D00A91ABB00A81ABB40A85ABB28A
:101070000A87AE50026E025042E9E5CFDAFFE7CFB1
:04108000D9FF120082
:0C108400D9CFE6FFDACFE6FFE1CFD9FFBD
:10109000E2CFDAFF83E97F0E0014D56ED76AD66AF5
:1010A000F29400AE02D0F28A01D0F29AD58E41E9D4
:0A10B000E5CFDAFFE7CFD9FF120009
:0610BA00D9CFE6FFDACFFA
:1010C000E6FFE1CFD9FFE2CFDAFF84E942E880EB27
:1010D00004F081EB05F005EBD7FF04EBD6FF43E905
:0A10E000E5CFDAFFE7CFD9FF1200D9
:0610EA00D9CFE6FFDACFCA
:1010F000E6FFE1CFD9FFE2CFDAFF83E96CAC04D0A1
:101100006C900F0109B36C8000EB6DFF41E9E5CFF6
:08111000DAFFE7CFD9FF12005E
:08111800D9CFE6FFDACFE6FFB4
:10112000E1CFD9FFE2CFDAFF83E9ACAC04D0AC90D9
:101130000F010AB3AC8000EBADFF41E9E5CFDAFF68
:06114000E7CFD9FF120009
:0A114600600EF36E00EE00F00F0ED5
:1011500001D81200EA6002D0EE6AFCD7F350E960D1
:061160001200EE6AFCD74C
:0A1166001EEE00F02EEE00F0F86A15
:10117000DDEC06F003EC00F084EC02F0FBD712008B
:08118000775EFB0F00F20F0087
:0811880000010000000000005E
:1011900000000000000000003333F33F0000E03F98
:0611A0006A670000000078
:020000040030CA
:0100010006F8
:010002001EDF
:010003000FED
:01000400F308
:010005008377
:01000600C534
:01000800FFF8
:01000900C036
:01000A00FFF6
:01000B00E014
:01000C00FFF4
:01000D0040B2
:00000001FF
